11/08/2011
I401             SIRLEI OLIVEIRA DE JESUS                                    19/01/198205/08/2011T04550157917                 XF          401                                                                                   00000000000                                                            HERBERT TRAP                                                PLANTA GUARITUBA PEQUENA                                    PIRAQUARA                                                   PR83310390(41)3653-6901                                                                             310-38                                              121            1               3                                                                                                     233868                                                                                                              0   
I405             ALESSANDRA DE RAMOS ALVES                                   28/03/198605/08/2011T06168300929                 XF          405                                                                                   00000000000                                                            SANTA RITA DE C¡SSIA DOS IMPOSSÕVEIS                        TATUQUARA                                                   CURITIBA                                                    PR81470086(41)3227-0531                                                                             310-39                                              1553           1               3                                                                                                     233521                                                                                                              0   
I406             CARLOS EDUARDO ALVES M. DE OLIVEIRA                         10/02/200605/08/2011D                            EM          405                                                                                   00000000000                                                            SANTA RITA DE C¡SSIA DOS IMPOSSÕVEIS                        TATUQUARA                                                   CURITIBA                                                    PR81470086(41)3227-0531                                                                             310-38                                              1553           1               3                                                                                                     233521                                                                                                              0   
I416             ANA PAULA TEREZINHA MENGHINI MANO                           29/03/197308/08/2011T86217798972                 XF          416                                                                                   00000000000                                                                                                                                                                                                                                                  00000000(41)3524-9067                                                                             310-31                                                             1               3                                                                                                     233509                                                                                                              0   
I417             ANTONIO VALDONE ARAUJO MANO                                 14/10/197108/08/2011D14628172897                 EM          416                                                                                   00000000000                                                                                                                                                                                                                                                  00000000(41)3524-9067                                                                             310-31                                                             1               3                                                                                                     233509                                                                                                              0   
I418             MATHEUS MENGHINI                                            26/04/200208/08/2011D                            FM          416                                                                                   00000000000                                                                                                                                                                                                                                                  00000000(41)3524-9067                                                                             310-31                                                             1               3                                                                                                     233509                                                                                                              0   
I421             ALEXANDRE ROBERTO GREGORIO                                  18/09/197806/08/2011T92823122915                 XM          421                                                                                   00000000000                                                            PROFESSOR LUIZ C…SAR                                        ¡GUA VERDE                                                  CURITIBA                                                    PR80620280                                                                                          310-38                                              890            1               3                                                                                                     233843                                     (41)8417-1609                                                            0   
I422             ELIMARA FUNEZ GREGORIO                                      25/09/198206/08/2011D04166998986                 EF          421                                                                                   00000000000                                                            PROFESSOR LUIZ C…SAR                                        ¡GUA VERDE                                                  CURITIBA                                                    PR80620280                                                                                          310-38                                              890            1               3                                                                                                     233843                                     (41)8417-1609                                                            0   
I424             ADRIANA DO NASCIMENTO SANTOS                                19/06/197708/08/2011T00482770961                 XF          424                                                                                   00000000000                                                            TENENTE-CORONEL MANOEL EUFR¡SIO DE ASSUMP«√O                TATUQUARA                                                   CURITIBA                                                    PR81470210(41)3396-1460                                                                             310-38                                              635            1               3                                                                                                     235701                                                                                                              0   
I425             KARLA NATHALIA SANTOS COEDRIEO VICE                         26/08/200708/08/2011D                            FF          424                                                                                   00000000000                                                            TENENTE-CORONEL MANOEL EUFR¡SIO DE ASSUMP«√O                TATUQUARA                                                   CURITIBA                                                    PR81470210(41)3396-1460                                                                             310-38                                              635            1               3                                                                                                     235701                                                                                                              0   
I426             ALEX VINICIUS DA SILVA                                      18/12/198908/08/2011T07816566999                 XM          426                                                                                   00000000000                                                            DOUTOR LEVY BUQUERA                                         SÌTIO CERCADO                                               CURITIBA                                                    PR81910190(41)3042-5903                                                                             310-38                                              600            1               3                                                                                                     233510                                                                                                              0   
I5840            AURILEIDE MARIA AZEVEDO                                     18/11/196809/08/2011F                            XF          5840                                                                                  00000000000                                                            IZABEL CAPELARI ANTONIACOMI                                 JARDIM ADRIANA                                              COLOMBO                                                     PR83408470                                                                                          310-38                                              121            1               3                                                                                                     235703                        (41)3666-4871                                                                         0   
I430             CAROLINE MARIA AZEVEDO                                      11/04/199109/08/2011D07794147999                 XF          5840                                                                                  00000000000                                                            IZABEL CAPELARI ANTONIACOMI                                 JARDIM ADRIANA                                              COLOMBO                                                     PR83408470                                                                                          310-38                                              121            1               3                                                                                                     235703                        (41)3666-4871                                                                         0   
I440             TEREZINHA PACHECO DE SOUZA                                  29/06/195308/08/2011T66439779915                 XF          440                                                                                   00000000000                                                            JOAO LICEIRO DE BRIO                                        JARDIM DOS EUCALIPTOS                                       COLOMBO                                                     PR83408500                                                                                          310-31                                              356            1               3                                                                                                     233845                                                                                                              0   
I441             MAYARA APARECIDA PACHECO DE SOUZA                           18/03/199808/08/2011D66439779915                 FF          440                                                                                   00000000000                                                            JOAO LICEIRO DE BRIO                                        JARDIM DOS EUCALIPTOS                                       COLOMBO                                                     PR83408500                                                                                          310-31                                              356            1               3                                                                                                     233845                                                                                                              0   
I5847            IRLENE ALVES DA SILVA                                       01/12/196108/08/2011F03046503822                 XM          5847                                                                                  00000000000                                                            1015                                                        BAIRRO ALTO                                                 CURITIBA                                                    PR82820320                                                                                          310-39                                                             1               3                                                                                                     233844                                                                                                              0   
I442             DEBORA GON«ALVES                                            08/02/199008/08/2011D06575664970                 XF          5847                                                                                  00000000000                                                            1015                                                        BAIRRO ALTO                                                 CURITIBA                                                    PR82820320                                                                                          310-39                                                             1               3                                                                                                     233844                                                                                                              0   
I5849            LORENA NASCIMENTO DE LARA                                   18/07/198703/08/2011F07361594956                 XF          5849                                                                                  00000000000LORENANASCIMENTO47@HOTMAIL.COM                              RAUL DE OLIVEIRA MACHADO                                    ZANIOLO                                                     S√O JOS… DOS PINHAIS                                        PR83025610                                                                                          310-2                                               23             1               3                                                                                                     233511                                     (41)9101-9825                                                            0   
I501             GABRIELLI DE LARA DEON                                      14/06/201103/08/2011D                            XF          5849                                                                                  00000000000LORENANASCIMENTO47@HOTMAIL.COM                              RAUL DE OLIVEIRA MACHADO                                    ZANIOLO                                                     S√O JOS… DOS PINHAIS                                        PR83025610                                                                                          310-2                                               23             1               3                                                                                                     233511                                     (41)9101-9825                                                            0   
I450             JULIANA NARA DOS SANTOS                                     14/01/197906/08/2011T07919126630                 XF          450                                                                                   00000000000                                                            DOUTOR TARCÕLIO GAZIRI                                      CASCATINHA                                                  CURITIBA                                                    PR82020200                                                                                          310-38                                              50             1               3                                                                                                     235681                                                                                                              0   
I5857            CRISTIANE BATISTA LIRMAN                                    18/10/197910/08/2011F                            XF          5857                                                                                  00000000000                                                            CASEMIRO MITCZUK                                            CIDADE INDUSTRIAL                                           CURITIBA                                                    PR81270170                                                                                          310-38                                              161            1               3                                                                                                     235707                                     (41)9970-7628                                                            0   
I456             ORIDIA BATISTA LIRMAN                                       07/02/196010/08/2011D00402835930                 XF          5857                                                                                  00000000000                                                            CASEMIRO MITCZUK                                            CIDADE INDUSTRIAL                                           CURITIBA                                                    PR81270170                                                                                          310-38                                              161            1               3                                                                                                     235707                                     (41)9970-7628                                                            0   
I487             THIAGO AIRTON MANESCO                                       10/09/198609/08/2011T00983161925                 XM          487                                                                                   00000000000                                                            TIJUCAS DO SUL                                              SÌTIO CERCADO                                               CURITIBA                                                    PR81925060                                                                                          310-2                                               1880           1               3                                                                                                     235721                                     (41)9884-0303                                                            0   
I5863            MARLENE PACHECO MEDEIROS                                    26/01/196108/08/2011F51940272904                 XM          5863                                                                                  00000000000                                                            ALBERTO DE OLIVEIRA                                         BAIRRO ALTO                                                 CURITIBA                                                    PR82820180(41)3308-7189                                                                             310-38                                              66             1               3                                                                                                     235720                                                                                                              0   
I488             CAROLINA PACHECO SIMOES                                     02/01/198808/08/2011D06693234976                 XF          5863                                                                                  00000000000                                                            ALBERTO DE OLIVEIRA                                         BAIRRO ALTO                                                 CURITIBA                                                    PR82820180(41)3308-7189                                                                             310-38                                              66             1               3                                                                                                     235720                                                                                                              0   
I489             RICARDO PACHECO SIMOES                                      17/04/198908/08/2011D07512549911                 FF          5863                                                                                  00000000000                                                            ALBERTO DE OLIVEIRA                                         BAIRRO ALTO                                                 CURITIBA                                                    PR82820180(41)3308-7189                                                                             310-38                                              66             1               3                                                                                                     235720                                                                                                              0   
I5864            GABRIELLA DE CAMARGO                                        12/08/199108/08/2011F07607457909                 XF          5864                                                                                  00000000000                                                            DOUTOR MARINS ALVES DE CAMARGO                              TINGUI                                                      CURITIBA                                                    PR82620260(41)3328-5450                                                                             310-2                                               357            1               3                                                                                                     235719                                                                                                              0   
I490             DAVI HENRIQUE DE CAMARGO GODINHO                            21/06/201108/08/2011D09905684905                 XM          5864                                                                                  00000000000                                                            DOUTOR MARINS ALVES DE CAMARGO                              TINGUI                                                      CURITIBA                                                    PR82620260(41)3328-5450                                                                             310-2                                               357            1               3                                                                                                     235719                                                                                                              0   
I473             WAGNER FERNANDO DOS SANTOS                                  08/10/198308/08/2011T04141111929                 XM          473                                                                                   00000000000                                                            ARTHUR MANOEL IWERSEN                                       BOQUEIR„O                                                   CURITIBA                                                    PR81750240(41)3378-6961                                                                             310-38                                              1548           1               3                                                                                                     235718                                                                                                              0   
I474             LIDIANE APARECIDA AMARAL CARNEIRO                           17/12/198608/08/2011D04691432906                 JF          473                                                                                   00000000000                                                            ARTHUR MANOEL IWERSEN                                       BOQUEIR„O                                                   CURITIBA                                                    PR81750240(41)3378-6961                                                                             310-39                                              1548           1               3                                                                                                     235718                                                                                                              0   
I475             CLEVERSON JOSE THOALDO                                      20/06/198308/08/2011T05474006918                 XM          475                                                                                   00000000000                                                            HEITOR BAGGIO VIDAL                                         BAIRRO ALTO                                                 CURITIBA                                                    PR82820120(41)3367-6600                                                                             310-38                                              1456           1               3                                                                                                     233525                                                                                                              0   
