18/08/2011
I625             DANIELE ZACARCHUKA                                          11/01/197628/07/2011T02139352955                 XF          625                                                                                   00000000000                                                            RUBENS FABRI                                                CIDADE INDUSTRIAL                                           CURITIBA                                                    PR81460346(41)3347-6772                                                                             310-38                                              171            1               3                                                                                                     233561                                                                                                              0   
I5871            ILDA DE SOUZA                                               10/02/195008/08/2011F20198647972                 XF          5871                                                                                  00000000000                                                            MARCILIANO FERREIRA DOS SANTOS                              SANTA CÂNDIDA                                               CURITIBA                                                    PR82640550(41)8401-5322                                                                             310-38                                              153            1               3                                                                                                     233518                        (41)8401-5322                                                                         0   
I508             BRUNO ALESSANDRO DOS SANTOS                                 20/11/199508/08/2011D07702875909                 XM          5871                                                                                  00000000000                                                            MARCILIANO FERREIRA DOS SANTOS                              SANTA CÂNDIDA                                               CURITIBA                                                    PR82640550(41)8401-5322                                                                             310-38                                              153            1               3                                                                                                     233518                        (41)8401-5322                                                                         0   
I5881            GITANIA PAULA GALINA                                        15/08/201112/08/2011F01802231943                 XF          5881                                                                                  00000000000                                                            PADRE FRANCISCO CHYLASZEK                                   CIDADE INDUSTRIAL                                           CURITIBA                                                    PR81280030(41)4101-5975                                                                             310-38                                              799            1               3                                                                                                     235685                                                                                                              0   
I536             MARCO ANGONIO SALDANHA                                      03/01/198012/08/2011D02606277988                 XM          5881                                                                                  00000000000                                                            PADRE FRANCISCO CHYLASZEK                                   CIDADE INDUSTRIAL                                           CURITIBA                                                    PR81280030(41)4101-5975                                                                             310-38                                              799            1               3                                                                                                     235685                                                                                                              0   
I653             ALESSANDRA MARTELLI CORREA                                  30/04/197815/08/2011T02838655981                 XF          653                                                                                   00000000000ALESSANDRAMARTELLI@GMAIL.COM                                REINALDO RICHTER                                            CAMPO COMPRIDO                                              CURITIBA                                                    PR81220120(41)3095-3409                                                                             310-38                                              155            1               3                                                                                                     233538                                                                                                              0   
I655             EDUARDO ALEXANDRE MARTELLI CORREA A                         11/01/199715/08/2011D02838655981                 FM          653                                                                                   00000000000ALESSANDRAMARTELLI@GMAIL.COM                                REINALDO RICHTER                                            CAMPO COMPRIDO                                              CURITIBA                                                    PR81220120(41)3095-3409                                                                             310-38                                              155            1               3                                                                                                     233538                                                                                                              0   
I654             SILVIO ALVES ARRUDA                                         25/03/197315/08/2011D02552619932                 EM          653                                                                                   00000000000ALESSANDRAMARTELLI@GMAIL.COM                                REINALDO RICHTER                                            CAMPO COMPRIDO                                              CURITIBA                                                    PR81220120(41)3095-3409                                                                             310-38                                              155            1               3                                                                                                     233538                                                                                                              0   
I5891            TATIANE FERREIRA DA SILVA SANTOS                            20/06/198915/08/2011F07711486901                 XF          5891                                                                                  00000000000                                                            JOSÉ IZIDORO FILHO                                          BRACATINGA                                                  CURITIBA                                                    PR82115180                                                                                          310-2                                               66             1               3                                                                                                     235686                                     (41)8878-1070                                                            0   
I562             LUCAS DA SILVA FIGUEREDO                                    05/03/201115/08/2011D07711486901                 XF          5891                                                                                  00000000000                                                            JOSÉ IZIDORO FILHO                                          BRACATINGA                                                  CURITIBA                                                    PR82115180                                                                                          310-2                                               66             1               3                                                                                                     235686                                     (41)8878-1070                                                            0   
I567             ROBERTO JOSE FERNANDES DE BRITO                             11/01/196315/08/2011T38443244020                 XM          567                                                                                   00000000000                                                            FRANCISCO DAL\'NEGRO                                        COLÔNIA RIO GRANDE                                          SÃO JOSÉ DOS PINHAIS                                        PR83025320(41)3283-6479                                                                             310-31                                              3629           1               3                                                                                                     235695                                                                                                              0   
I568             JAQUELINE MARIA FACHINELLO                                  01/06/196415/08/2011D47183250059                 EF          567                                                                                   00000000000                                                            FRANCISCO DAL\'NEGRO                                        COLÔNIA RIO GRANDE                                          SÃO JOSÉ DOS PINHAIS                                        PR83025320(41)3283-6479                                                                             310-31                                              3629           1               3                                                                                                     235695                                                                                                              0   
I5897            JOAO HENRIQUE VALENTINI                                     17/08/198314/08/2011F04221239948                 XM          5897                                                                                  00000000000                                                            BENJAMIN CONSTANT                                           CENTRO                                                      ARAUCÁRIA                                                   PR83702510                                                                                          310-2                                               605            1               3                                                                                                     235775                                     (41)9918-4345                                                            0   
I576             VALLETY VALENTINI                                           16/06/198914/08/2011D01096528940                 XF          5897                                                                                  00000000000                                                            BENJAMIN CONSTANT                                           CENTRO                                                      ARAUCÁRIA                                                   PR83702510                                                                                          310-2                                               605            1               3                                                                                                     235775                                     (41)9918-4345                                                            0   
I579             EVA TAKEUCHI DOS SANTOS                                     07/11/197913/08/2011T03371642909                 XF          579                                                                                   00000000000                                                            TARQUÍNIO SANTOS                                            CAJURU                                                      CURITIBA                                                    PR82900080                                                                                          310-39                                              245            1               3                                                                                                     235730                                     (41)9961-7449                                                            0   
I580             LIANA DOS SANTOS GUERGOLET                                  12/09/200013/08/2011D04391515970                 FF          579                                                                                   00000000000                                                            TARQUÍNIO SANTOS                                            CAJURU                                                      CURITIBA                                                    PR82900080                                                                                          310-38                                              245            1               3                                                                                                     235730                                     (41)9961-7449                                                            0   
I592             VERA LUCIA GUSE MANOEL                                      02/10/196616/08/2011T80380379953                 XF          592                                                                                   00000000000                                                            PROFESSOR JOSÉ FARÂNI MANSUR GUÉRIOS                        PAROLIN                                                     CURITIBA                                                    PR80220420                                                                                          310-31                                              601            1               3                                                                                                     235740                        (41)3332-2215(41)8701-5199                                                            0   
I594             HELOISA VICTORIA FERREIRA                                   23/09/201016/08/2011D80380379953                 FF          592                                                                                   00000000000                                                            PROFESSOR JOSÉ FARÂNI MANSUR GUÉRIOS                        PAROLIN                                                     CURITIBA                                                    PR80220420                                                                                          310-31                                              601            1               3                                                                                                     235740                        (41)3332-2215(41)8701-5199                                                            0   
I593             JOAO VITOR GUSE MANOEL                                      05/09/200216/08/2011D08411995909                 FF          592                                                                                   00000000000                                                            PROFESSOR JOSÉ FARÂNI MANSUR GUÉRIOS                        PAROLIN                                                     CURITIBA                                                    PR80220420                                                                                          310-31                                              601            1               3                                                                                                     235740                        (41)3332-2215(41)8701-5199                                                            0   
I5904            EDILAYNE REGINA PEREIRA                                     01/06/198715/08/2011F01021889989                 XF          5904                                                                                  00000000000                                                            FRANCISCO ANTONIO RIBEIRO                                   ATUBA                                                       CURITIBA                                                    PR83860320(41)3675-9729                                                                             310-38                                              7              1               3                                                                                                     235741                                                                                                              0   
I591             MARIA GABRYELA PEREIRA DE GODOY                             02/05/200415/08/2011D01021889989                 XF          5904                                                                                  00000000000                                                            FRANCISCO ANTONIO RIBEIRO                                   ATUBA                                                       CURITIBA                                                    PR83860320(41)3675-9729                                                                             310-38                                              7              1               3                                                                                                     235741                                                                                                              0   
I595             GISELI APARECIDA GONCALVES DONADELI                         24/12/198115/08/2011T03671897988                 XF          595                                                                                   00000000000                                                            BETONEX                                                     JARDIM TROPICAL                                             PIRAQUARA                                                   PR83314180                                                                                          310-38                                              268            1               3                                                                                                     235697                                     (41)8506-7438                                                            0   
I596             JOANA MARIA GONCALVES DE ALMEIDA                            21/05/200115/08/2011D                            FF          595                                                                                   00000000000                                                            BETONEX                                                     JARDIM TROPICAL                                             PIRAQUARA                                                   PR83314180                                                                                          310-38                                              268            1               3                                                                                                     235697                                     (41)8506-7438                                                            0   
I5906            AMARELIS SOARES FERNANDES                                   15/10/195315/08/2011F04613290937                 XF          5906                                                                                  00000000000                                                            LÁZARO MOREIRA                                              VILA MARIA ANTONIETA                                        PINHAIS                                                     PR83331040                                                                                          310-2                                               176            1               3                                                                                                     233850                        (41)3385-3784                                                                         0   
I597             LUIZ FELIPE FERNANDES                                       28/10/199415/08/2011D09541347967                 XM          5906                                                                                  00000000000                                                            LÁZARO MOREIRA                                              VILA MARIA ANTONIETA                                        PINHAIS                                                     PR83331040                                                                                          310-2                                               176            1               3                                                                                                     233850                        (41)3385-3784                                                                         0   
I598             LARYSSA DE OLIVEIRA FERNANDES                               27/04/200815/08/2011D04613290937                 FF          5906                                                                                  00000000000                                                            LÁZARO MOREIRA                                              VILA MARIA ANTONIETA                                        PINHAIS                                                     PR83331040                                                                                          310-2                                               176            1               3                                                                                                     233850                        (41)3385-3784                                                                         0   
I617             IRACEMA MACHADO DO NASCIMENTO                               22/02/194816/08/2011T00690764995                 XF          617                                                                                   00000000000                                                            CARLOS MUNHOZ DA ROCHA                                      TATUQUARA                                                   CURITIBA                                                    PR81470090(41)3265-6863                                                                             310-31                                              771            1               3                                                                                                     235723                                                                                                              0   
I618             PEDRO JOSE DO NASCIMENTO                                    29/06/194316/08/2011D17245885915                 EM          617                                                                                   00000000000                                                            CARLOS MUNHOZ DA ROCHA                                      TATUQUARA                                                   CURITIBA                                                    PR81470090(41)3265-6863                                                                             310-31                                              771            1               3                                                                                                     235723                                                                                                              0   
I611             MARIA DA CONCEICAO DE ALMEIDA                               23/01/196716/08/2011T73695246987                 XF          611                                                                                   00000000000                                                            PAULINO FRANCO DE CARVALHO                                  SANTA CÂNDIDA                                               CURITIBA                                                    PR82630590(41)3257-5298                                                                             310-38                                              82             1               3                                                                                                     235687                                                                                                              0   
I613             ROSANGELA ALVES DE ALMEIDA                                  28/12/199216/08/2011D07773497958                 FF          611                                                                                   00000000000                                                            PAULINO FRANCO DE CARVALHO                                  SANTA CÂNDIDA                                               CURITIBA                                                    PR82630590(41)3257-5298                                                                             310-38                                              82             1               3                                                                                                     235687                                                                                                              0   
I614             DANIEL ALVES DE ALMEIDA                                     05/03/199516/08/2011D                            FM          611                                                                                   00000000000                                                            PAULINO FRANCO DE CARVALHO                                  SANTA CÂNDIDA                                               CURITIBA                                                    PR82630590(41)3257-5298                                                                             310-38                                              82             1               3                                                                                                     235687                                                                                                              0   
I612             RENERO ALVES DE ALMEIDA                                     05/07/195916/08/2011D49122436987                 EM          611                                                                                   00000000000                                                            PAULINO FRANCO DE CARVALHO                                  SANTA CÂNDIDA                                               CURITIBA                                                    PR82630590(41)3257-5298                                                                             310-38                                              82             1               3                                                                                                     235687                                                                                                              0   
I615             VITORIA NAOMY ALVES DE ALMEIDA                              31/05/200116/08/2011D                            FF          611                                                                                   00000000000                                                            PAULINO FRANCO DE CARVALHO                                  SANTA CÂNDIDA                                               CURITIBA                                                    PR82630590(41)3257-5298                                                                             310-38                                              82             1               3                                                                                                     235687                                                                                                              0   
I5910            WERALUCIA RODRIGUES DE BRITO                                01/11/196216/08/2011F48961396900                 XF          5910                                                                                  00000000000                                                            VEREADOR ÂNGELO BURBELLO                                    UMBARÁ                                                      CURITIBA                                                    PR81940320                                                                                          310-38                                              17             1               3                                                                                                     233607                        (41)2105-7600(41)9651-9804                                                            0   
I610             YELDISSEN PEREIRA DA SILVA                                  21/12/199016/08/2011D06820855966                 XM          5910                                                                                  00000000000                                                            VEREADOR ÂNGELO BURBELLO                                    UMBARÁ                                                      CURITIBA                                                    PR81940320                                                                                          310-38                                              17             1               3                                                                                                     233607                        (41)2105-7600(41)9651-9804                                                            0   
I622             MARCIA REGINA DE LIMA DOS SANTOS                            14/03/197917/08/2011T02426821973                 XF          622                                                                                   00000000000                                                            LADISLAU GAUDEDA                                            CIDADE INDUSTRIAL                                           CURITIBA                                                    PR81270214(41)3373-3315                                                                             310-38                                              514            1               3                                                                                                     235735                                     (41)8414-1764                                                            0   
I5912            JULIANA VIEIRA ROSA                                         24/06/198712/08/2011F05619658970                 XF          5912                                                                                  00000000000                                                            PEDRO BATISTA MEDEIROS                                      SÃO SEBASTIÃO                                               SÃO JOSÉ DOS PINHAIS                                        PR83075080(41)3385-8741                                                                             310-38                                              276            1               3                                                                                                     233571                                                                                                              0   
I623             LUCIA FRANCISCA VIEIRA ROSA                                 11/10/196012/08/2011D02805851951                 XF          5912                                                                                  00000000000                                                            PEDRO BATISTA MEDEIROS                                      SÃO SEBASTIÃO                                               SÃO JOSÉ DOS PINHAIS                                        PR83075080(41)3385-8741                                                                             310-38                                              276            1               3                                                                                                     233571                                                                                                              0   
I624             ANA BEATRIZ FERREIRA ROSA                                   09/08/200212/08/2011D                            OF          5912                                                                                  00000000000                                                            PEDRO BATISTA MEDEIROS                                      SÃO SEBASTIÃO                                               SÃO JOSÉ DOS PINHAIS                                        PR83075080(41)3385-8741                                                                             310-38                                              276            1               3                                                                                                     233571                                                                                                              0   
I5920            EDINA REGINA MESSIAS                                        22/10/196416/08/2011F01650607946                 XF          5920                                                                                  00000000000                                                            JOÃO DEMBINSKI                                                                                                          CURITIBA                                                    PR81270330(41)3285-1724                                                                             310-31                                              1213           1               3                                                                                                     235710                                     (41)8871-6511                                                            0   
I647             RAFAEL MARTINS MESSIAS                                      24/05/200516/08/2011D09430363999                 XM          5920                                                                                  00000000000                                                            JOÃO DEMBINSKI                                                                                                          CURITIBA                                                    PR81270330(41)3285-1724                                                                             310-31                                              1213           1               3                                                                                                     235710                                     (41)8871-6511                                                            0   
I5922            ANALICE APARECIDA FARIA                                     10/02/198417/08/2011F05236759927                 XF          5922                                                                                  00000000000                                                            RIO PARANÁ                                                                                                              FAZENDA RIO GRANDE                                          PR83833283(41)3604-5527                                                                             310-2                                               535            1               3                                                                                                     235708                                                                                                              0   
I650             FABIANA FARIA SILVA                                         25/10/200217/08/2011D09678993970                 XF          5922                                                                                  00000000000                                                            RIO PARANÁ                                                                                                              FAZENDA RIO GRANDE                                          PR83833283(41)3604-5527                                                                             310-2                                               535            1               3                                                                                                     235708                                                                                                              0   
