12/08/2011
I358             ROMILDA TEREZINHA DA SILVA                                  18/06/196105/08/2011T67216129920                 XF          358                                                                                   00000000000                                                            LAURO MÜLLER                                                JARDIM ITIBERÊ                                              PIRAQUARA                                                   PR83314240(41)3667-8497                                                                             310-31                                              178            1               3                                                                                                     233824                                                                                                              0   
I359             DANIELLE DALILA DA SILVA SANTOS                             12/09/200105/08/2011D                            EF          358                                                                                   00000000000                                                            LAURO MÜLLER                                                JARDIM ITIBERÊ                                              PIRAQUARA                                                   PR83314240(41)3667-8497                                                                             310-31                                              178            1               3                                                                                                     233824                                                                                                              0   
I537             ANGELA MARCIA                                               17/07/198031/07/2011T03096547939                 XF          537                                                                                   00000000000                                                            AYRTON SENNA DA SILVA                                       JARDIM BUSMAYER                                             CAMPO LARGO                                                 PR83606390(41)3032-1293                                                                             310-31                                              2404           1               3                                                                                                     233790                                                                                                              0   
I5808            JEFERSON DE OLIVEIRA                                        19/04/498505/08/2011F04327894990                 XM          5808                                                                                  00000000000                                                            RIO SÃO LUIZ                                                PLANTA BAIRRO WEISSÓPOLIS                                   PINHAIS                                                     PR83322190                                                                                          310-2                                               1179           1               3                                                                                                     233837                                     (41)8498-0642                                                            0   
I386             JEFERSON DE OLIVEIRA                                        19/04/198505/08/2011D04327894990                 XM          5808                                                                                  00000000000                                                            RIO SÃO LUIZ                                                PLANTA BAIRRO WEISSÓPOLIS                                   PINHAIS                                                     PR83322190                                                                                          310-2                                               1179           1               3                                                                                                     233837                                     (41)8498-0642                                                            0   
I419             ORLANDO JOSE DE ALMEIDA                                     21/01/197005/08/2011T01466930942                 XM          419                                                                                   00000000000                                                            DOUTOR NELSON DE SOUZA PINTO                                SÃO LOURENÇO                                                CURITIBA                                                    PR82200060(41)3252-6132                                                                             310-31                                              750            1               3                                                                                                     233757                                                                                                              0   
I420             MARIA ODETE RODRIGUES                                       20/11/196311/07/2011T56112360900                 XF          420                                                                                   00000000000                                                            FRANCISCO DEROSSO                                           BOQUEIRAO                                                   CURITIBA                                                    PR81860901                                                                                          310-31                                              5150           1               3                                                                                                     233624                        (41)3258-9744                                                                         0   
I5838            ELISA BOTELHO MENDES                                        09/11/199210/08/2011F05980468951                 XF          5838                                                                                  00000000000                                                            AMOR-PERFEITO                                               GUATUPÊ                                                     SÃO JOSÉ DOS PINHAIS                                        PR83060640(41)3372-6573                                                                             310-38                                              142            1               3                                                                                                     233524                                                                                                              0   
I538             GABRIELY MENDES DA SILVA                                    04/08/201110/08/2011D                            XF          5838                                                                                  00000000000                                                            AMOR-PERFEITO                                               GUATUPÊ                                                     SÃO JOSÉ DOS PINHAIS                                        PR83060640(41)3372-6573                                                                             310-38                                              142            1               3                                                                                                     233524                                                                                                              0   
I5839            SAMARA SOUSA DE LIMA                                        22/06/199210/08/2011F08015505992                 XF          5839                                                                                  00000000000                                                            ALEXANDRE DE CRISTO                                         VILA GRÉCIA                                                 ALMIRANTE TAMANDARÉ                                         PR83502370                                                                                          310-2                                               22             1               3                                                                                                     235705                                     (41)9664-6620                                                            0   
I539             ANDRESSA GABRIELA DE LIMA ALMEIDA                           01/07/201110/08/2011D                            XF          5839                                                                                  00000000000                                                            ALEXANDRE DE CRISTO                                         VILA GRÉCIA                                                 ALMIRANTE TAMANDARÉ                                         PR83502370                                                                                          310-2                                               22             1               3                                                                                                     235705                                     (41)9664-6620                                                            0   
I5841            DANIELE CRISTINE JORGE RIBEIRO                              16/09/198208/08/2011F04116222933                 XF          5841                                                                                  00000000000                                                            MINISTRO FLÁVIO SUPLICY DE LACERDA                          SÍTIO CERCADO                                               CURITIBA                                                    PR81925470                                                                                          310-31                                              455            1               3                                                                                                     233784                        (41)3221-6196                                                                         0   
I431             MAYLA ISABELE PERUSSI                                       14/07/200008/08/2011D                            XF          5841                                                                                  00000000000                                                            MINISTRO FLÁVIO SUPLICY DE LACERDA                          SÍTIO CERCADO                                               CURITIBA                                                    PR81925470                                                                                          310-31                                              455            1               3                                                                                                     233784                        (41)3221-6196                                                                         0   
I432             IZAURA DE OLIVEIRA DOS SANTOS                               13/08/196510/08/2011T97483532904                 XF          432                                                                                   00000000000                                                            PROFESSOR HOSTÍLIO ARAÚJO                                   PILARZINHO                                                  CURITIBA                                                    PR82110130                                                                                          310-38                                              5              1               3                                                                                                     235702                                     (41)8823-0780                                                            0   
I448             JANDIRA VALENTIM MAIORKY                                    03/07/195810/08/2011T85988871968                 XF          448                                                                                   00000000000                                                            PAULO SETÚBAL                                               BOQUEIRÃO                                                   CURITIBA                                                    PR81670130                                                                                          310-38                                              3110           1               3                                                                                                     235763                                                                                                              0   
I459             HARLISSON EDUARDO DA SILVA                                  03/10/198009/08/2011T03550778929                 XM          459                                                                                   00000000000ROBYANE_M@YAHOO.COM.BR                                      FREDERICO LEITNER                                           ATUBA                                                       CURITIBA                                                    PR82630309                                                                                          310-31                                              258            1               3                                                                                                     233558                                     (41)8522-0910                                                            0   
I483             EDNEIA APARECIDA DOMINGUES DE OLIVEIRA                      07/09/197010/08/2011T76391825904                 XF          483                                                                                   00000000000                                                            POUSO ALEGRE                                                VILA FELIZ                                                  ALMIRANTE TAMANDARÉ                                         PR83505390(41)3699-7883                                                                             310-38                                              38             1               3                                                                                                     235724                                                                                                              2   
I484             RENATA APARECIDA DOMINGUES DE OLIVE                         30/04/199910/08/2011D                            FF          483                                                                                   00000000000                                                            POUSO ALEGRE                                                VILA FELIZ                                                  ALMIRANTE TAMANDARÉ                                         PR83505390(41)3699-7883                                                                             310-38                                              38             1               3                                                                                                     235724                                                                                                              2   
I479             FERNANDOMARQUES STAHSEFSKI                                  03/10/197609/08/2011T03336748984                 XM          479                                                                                   00000000000                                                            SOLIMÕES                                                    MERCÊS                                                      CURITIBA                                                    PR80810070(41)3022-8318                                                                             310-38                                              1433           1               3                                                                                                     235722                                                                                                              0   
I480             ANA CAROLINA THOMAZ GOMES                                   30/09/198109/08/2011D03667647999                 EF          479                                                                                   00000000000                                                            SOLIMÕES                                                    MERCÊS                                                      CURITIBA                                                    PR80810070(41)3022-8318                                                                             310-39                                              1433           1               3                                                                                                     235722                                                                                                              0   
I481             CAETANO GOMES MARQUES                                       03/01/200809/08/2011D                            FM          479                                                                                   00000000000                                                            SOLIMÕES                                                    MERCÊS                                                      CURITIBA                                                    PR80810070(41)3022-8318                                                                             310-38                                              1433           1               3                                                                                                     235722                                                                                                              0   
I540             GILBERTO FERNANDES DE SOUZA                                 10/05/194910/08/2011T45739234972                 XM          540                                                                                   00000000000BBBROWNSSCHOLS@HOTMAIL.COM                                  PAPA JOÃO XXIII                                             SABIÁ                                                       ARAUCÁRIA                                                   PR83708800                                                                                          310-31                                              1506           1               3                                                                                                     233800                                     (41)9255-0227                                                            0   
I541             RAQUEL CRISTINE DE SOUZA                                    25/01/197010/08/2011D76581900982                 EF          540                                                                                   00000000000BBBROWNSSCHOLS@HOTMAIL.COM                                  PAPA JOÃO XXIII                                             SABIÁ                                                       ARAUCÁRIA                                                   PR83708800                                                                                          310-39                                              1506           1               3                                                                                                     233800                                     (41)9255-0227                                                            0   
I494             CALIANDRA CAMARA DE MATOS                                   20/04/199109/08/2011T07019141900                 XF          494                                                                                   00000000000                                                            TAVARES DE LYRA                                             AFONSO PENA                                                 SÃO JOSÉ DOS PINHAIS                                        PR83065180(41)3382-6157                                                                             310-38                                              2148           1               3                                                                                                     233574                        (41)3382-2129                                                                         0   
I495             SILMARA SOTTEL                                              25/07/199809/08/2011D                            OF          494                                                                                   00000000000                                                            TAVARES DE LYRA                                             AFONSO PENA                                                 SÃO JOSÉ DOS PINHAIS                                        PR83065180(41)3382-6157                                                                             310-38                                              2148           1               3                                                                                                     233574                        (41)3382-2129                                                                         0   
I509             IVONETE DA SILVA DOS SANTOS                                 19/03/198510/08/2011T04536284940                 XF          509                                                                                   00000000000                                                            HELENA CARCERERI PIEKARSKI                                  UBERABA                                                     CURITIBA                                                    PR81590571                                                                                          310-2                                               29             1               3                                                                                                     233515                                     (41)9136-3571                                                            0   
I510             MARIA VANESSA DE OLIVEIRA                                   01/06/198708/08/2011T06053538914                 XF          510                                                                                   00000000000                                                            AMÉRICO FIRMINO DE TOLEDO                                   UBERABA                                                     CURITIBA                                                    PR81580450(41)3206-6102                                                                             310-2                                               1516           1               3                                                                                                     235769                                                                                                              0   
I511             MARIA ROSANA MONTEIRO                                       22/01/197508/08/2011T00140235981                 XF          511                                                                                   00000000000                                                            FRANCISCO P DE LIMA                                         MAUA                                                        COLOMBO                                                     PR83413575(41)3663-9550                                                                             310-38                                              860            1               3                                                                                                     235770                                                                                                              0   
I512             BRUNO MONTEIRO PEREIRA                                      21/11/200008/08/2011D                            FM          511                                                                                   00000000000                                                            FRANCISCO P DE LIMA                                         MAUA                                                        COLOMBO                                                     PR83413575(41)3663-9550                                                                             310-38                                              860            1               3                                                                                                     235770                                                                                                              0   
I5875            SIDINEIDE DE OLIVEIRA                                       30/09/197508/08/2011F94140510900                 XF          5875                                                                                  00000000000                                                            MUNICÍPIO DE FLORESTA                                       CIDADE INDUSTRIAL                                           CURITIBA                                                    PR81250350                                                                                          310-38                                              93             1               3                                                                                                     233517                        (41)3045-8475                                                                         0   
I513             MARIA EDUARDA OLIVEIRA DE LIMA                              01/01/201108/08/2011D09906589965                 XF          5875                                                                                  00000000000                                                            MUNICÍPIO DE FLORESTA                                       CIDADE INDUSTRIAL                                           CURITIBA                                                    PR81250350                                                                                          310-38                                              93             1               3                                                                                                     233517                        (41)3045-8475                                                                         0   
I534             TASSIANY CRISTINA DA SILVEIRA                               18/02/199308/08/2011T08974444933                 XF          534                                                                                   00000000000                                                            RIO TEJO                                                    IGUAÇU                                                      FAZENDA RIO GRANDE                                          PR83833188(41)3060-2549                                                                             310-39                                              2298           1               3                                                                                                     235767                                                                                                              0   
I535             THALLYS HENRIQUE DA SILVEIRA OLIVEI                         19/01/200808/08/2011D                            FF          534                                                                                   00000000000                                                            RIO TEJO                                                    IGUAÇU                                                      FAZENDA RIO GRANDE                                          PR83833188(41)3060-2549                                                                             310-38                                              2298           1               3                                                                                                     235767                                                                                                              0   
